{
  "contractName": "Publishing",
  "abi": [
    {
      "constant": false,
      "inputs": [],
      "name": "renounceOwnership",
      "outputs": [],
      "payable": false,
      "stateMutability": "nonpayable",
      "type": "function"
    },
    {
      "constant": true,
      "inputs": [],
      "name": "owner",
      "outputs": [
        {
          "name": "",
          "type": "address"
        }
      ],
      "payable": false,
      "stateMutability": "view",
      "type": "function"
    },
    {
      "constant": false,
      "inputs": [
        {
          "name": "_newOwner",
          "type": "address"
        }
      ],
      "name": "transferOwnership",
      "outputs": [],
      "payable": false,
      "stateMutability": "nonpayable",
      "type": "function"
    },
    {
      "anonymous": false,
      "inputs": [
        {
          "indexed": true,
          "name": "previousOwner",
          "type": "address"
        }
      ],
      "name": "OwnershipRenounced",
      "type": "event"
    },
    {
      "anonymous": false,
      "inputs": [
        {
          "indexed": true,
          "name": "previousOwner",
          "type": "address"
        },
        {
          "indexed": true,
          "name": "newOwner",
          "type": "address"
        }
      ],
      "name": "OwnershipTransferred",
      "type": "event"
    },
    {
      "constant": false,
      "inputs": [
        {
          "name": "text",
          "type": "string"
        }
      ],
      "name": "saveText",
      "outputs": [],
      "payable": false,
      "stateMutability": "nonpayable",
      "type": "function"
    },
    {
      "constant": true,
      "inputs": [
        {
          "name": "text",
          "type": "string"
        }
      ],
      "name": "checkText",
      "outputs": [
        {
          "name": "",
          "type": "bool"
        }
      ],
      "payable": false,
      "stateMutability": "view",
      "type": "function"
    },
    {
      "constant": false,
      "inputs": [],
      "name": "killContract",
      "outputs": [],
      "payable": false,
      "stateMutability": "nonpayable",
      "type": "function"
    }
  ],
  "bytecode": "0x6080604052336000806101000a81548173ffffffffffffffffffffffffffffffffffffffff021916908373ffffffffffffffffffffffffffffffffffffffff160217905550610730806100536000396000f300608060405260043610610078576000357c0100000000000000000000000000000000000000000000000000000000900463ffffffff16806318bda0281461007d5780631c02708d146100fe5780636d0f0fdc14610115578063715018a61461017e5780638da5cb5b14610195578063f2fde38b146101ec575b600080fd5b34801561008957600080fd5b506100e4600480360381019080803590602001908201803590602001908080601f016020809104026020016040519081016040528093929190818152602001838380828437820191505050505050919291929050505061022f565b604051808215151515815260200191505060405180910390f35b34801561010a57600080fd5b5061011361024e565b005b34801561012157600080fd5b5061017c600480360381019080803590602001908201803590602001908080601f0160208091040260200160405190810160405280939291908181526020018383808284378201915050505050509192919290505050610288565b005b34801561018a57600080fd5b506101936102fd565b005b3480156101a157600080fd5b506101aa6103ff565b604051808273ffffffffffffffffffffffffffffffffffffffff1673ffffffffffffffffffffffffffffffffffffffff16815260200191505060405180910390f35b3480156101f857600080fd5b5061022d600480360381019080803573ffffffffffffffffffffffffffffffffffffffff169060200190929190505050610424565b005b60008061023b8361048b565b9050610246816105a2565b915050919050565b6000809054906101000a900473ffffffffffffffffffffffffffffffffffffffff1673ffffffffffffffffffffffffffffffffffffffff16ff5b60008060009054906101000a900473ffffffffffffffffffffffffffffffffffffffff1673ffffffffffffffffffffffffffffffffffffffff163373ffffffffffffffffffffffffffffffffffffffff161415156102e557600080fd5b6102ee8261048b565b90506102f9816105d4565b5050565b6000809054906101000a900473ffffffffffffffffffffffffffffffffffffffff1673ffffffffffffffffffffffffffffffffffffffff163373ffffffffffffffffffffffffffffffffffffffff1614151561035857600080fd5b6000809054906101000a900473ffffffffffffffffffffffffffffffffffffffff1673ffffffffffffffffffffffffffffffffffffffff167ff8df31144d9c2f0f6b59d69b8b98abd5459d07f2742c4df920b25aae33c6482060405160405180910390a260008060006101000a81548173ffffffffffffffffffffffffffffffffffffffff021916908373ffffffffffffffffffffffffffffffffffffffff160217905550565b6000809054906101000a900473ffffffffffffffffffffffffffffffffffffffff1681565b6000809054906101000a900473ffffffffffffffffffffffffffffffffffffffff1673ffffffffffffffffffffffffffffffffffffffff163373ffffffffffffffffffffffffffffffffffffffff1614151561047f57600080fd5b6104888161060a565b50565b60006002826040516020018082805190602001908083835b6020831015156104c857805182526020820191506020810190506020830392506104a3565b6001836020036101000a0380198251168184511680821785525050505050509050019150506040516020818303038152906040526040518082805190602001908083835b602083101515610531578051825260208201915060208101905060208303925061050c565b6001836020036101000a0380198251168184511680821785525050505050509050019150506020604051808303816000865af1158015610575573d6000803e3d6000fd5b5050506040513d602081101561058a57600080fd5b81019080805190602001909291905050509050919050565b600060016000836000191660001916815260200190815260200160002060009054906101000a900460ff169050919050565b6001806000836000191660001916815260200190815260200160002060006101000a81548160ff02191690831515021790555050565b600073ffffffffffffffffffffffffffffffffffffffff168173ffffffffffffffffffffffffffffffffffffffff161415151561064657600080fd5b8073ffffffffffffffffffffffffffffffffffffffff166000809054906101000a900473ffffffffffffffffffffffffffffffffffffffff1673ffffffffffffffffffffffffffffffffffffffff167f8be0079c531659141344cd1fd0a4f28419497f9722a3daafe3b4186f6b6457e060405160405180910390a3806000806101000a81548173ffffffffffffffffffffffffffffffffffffffff021916908373ffffffffffffffffffffffffffffffffffffffff160217905550505600a165627a7a723058205ea519a23d5ac66dd297e4ba52834a577a22505c2daa1a1b706354ccea7bd6a60029",
  "source": "pragma solidity ^0.4.23;\n\nimport 'zeppelin-solidity/contracts/ownership/Ownable.sol';\nimport 'zeppelin-solidity/contracts/math/SafeMath.sol';\n\n\n/** @title Publishing contract */\ncontract Publishing is Ownable {\n\n\t/** @dev SafeMath used to prevent overflow when working with bytes.\n\t * Using as a security precaution to avoid overflow attacks.\n\t */\n\tusing SafeMath for bytes32;\n\n\t/** @dev mapping bytes to bool and assigned to private variable proofs */\n\tmapping (bytes32 => bool) private proofs;\n\n\n\t/** @dev checks a bytes32 array and assigns the boolean true */\n\tfunction storeProof(bytes32 proof) private {\n\t\tproofs[proof] = true;\n\t}\n\n\t/** @dev checks a bytes32 array for boolean value\n\t *  @return proofs[proof] as boolean true/false\n\t */\n\tfunction hasProof(bytes32 proof) private view returns (bool) {\n\t\treturn proofs[proof];\n\t}\n\n\t/** @dev turns a string into sha256 encoded byte array\n\t *  @return sha256 encoded byte array\n\t */\n\tfunction hashText(string text) private pure returns (bytes32) {\n\t\treturn sha256(abi.encodePacked(text));\n\t}\n\n\t/** @dev onlyOwner of contract can save text into hash */\n\tfunction saveText(string text) public onlyOwner {\n\t\tbytes32 proof = hashText(text);\n\t\tstoreProof(proof);\n\t}\n\n\t/** @dev checks the text of a string and if it has been hashes returns boolean */\n\tfunction checkText(string text) public view returns (bool) {\n\t\tbytes32 proof = hashText(text);\n\t\treturn hasProof(proof);\n\t}\n\n\t/** @dev transfer contract to another owner */\n    function _transferOwnership(address _newOwner) internal {\n        require(_newOwner != address(0));\n        emit OwnershipTransferred(owner, _newOwner);\n        owner = _newOwner;\n    }\n\n    /** @dev if anyone calls this contract then the contract will self destruct */\n    function killContract() public {\n    \tselfdestruct(owner);\n    }\n}",
  "sourcePath": "/Users/cponeill/Desktop/DecentralizedApps/Consensys/Final/contracts/Publishing.sol",
  "compiler": {
    "name": "solc",
    "version": "0.4.24+commit.e67f0147.Emscripten.clang"
  },
  "schemaVersion": "2.0.1",
  "updatedAt": "2018-07-25T21:32:28.147Z"
}